{
  "abi": [
    {
      "inputs": [
        {
          "internalType": "string",
          "name": "name",
          "type": "string"
        },
        {
          "internalType": "string",
          "name": "symbol",
          "type": "string"
        },
        {
          "internalType": "uint256",
          "name": "initialSupply",
          "type": "uint256"
        }
      ],
      "stateMutability": "nonpayable",
      "type": "constructor"
    },
    {
      "anonymous": false,
      "inputs": [
        {
          "indexed": true,
          "internalType": "address",
          "name": "bannedAddress",
          "type": "address"
        },
        {
          "indexed": false,
          "internalType": "bool",
          "name": "isBanned",
          "type": "bool"
        }
      ],
      "name": "AddressBanned",
      "type": "event"
    },
    {
      "anonymous": false,
      "inputs": [
        {
          "indexed": true,
          "internalType": "address",
          "name": "owner",
          "type": "address"
        },
        {
          "indexed": true,
          "internalType": "address",
          "name": "spender",
          "type": "address"
        },
        {
          "indexed": false,
          "internalType": "uint256",
          "name": "value",
          "type": "uint256"
        }
      ],
      "name": "Approval",
      "type": "event"
    },
    {
      "anonymous": false,
      "inputs": [
        {
          "indexed": true,
          "internalType": "address",
          "name": "previousOwner",
          "type": "address"
        },
        {
          "indexed": true,
          "internalType": "address",
          "name": "newOwner",
          "type": "address"
        }
      ],
      "name": "OwnershipTransferred",
      "type": "event"
    },
    {
      "anonymous": false,
      "inputs": [
        {
          "indexed": true,
          "internalType": "address",
          "name": "from",
          "type": "address"
        },
        {
          "indexed": true,
          "internalType": "address",
          "name": "to",
          "type": "address"
        },
        {
          "indexed": false,
          "internalType": "uint256",
          "name": "value",
          "type": "uint256"
        }
      ],
      "name": "Transfer",
      "type": "event"
    },
    {
      "inputs": [
        {
          "internalType": "address",
          "name": "owner",
          "type": "address"
        },
        {
          "internalType": "address",
          "name": "spender",
          "type": "address"
        }
      ],
      "name": "allowance",
      "outputs": [
        {
          "internalType": "uint256",
          "name": "",
          "type": "uint256"
        }
      ],
      "stateMutability": "view",
      "type": "function"
    },
    {
      "inputs": [
        {
          "internalType": "address",
          "name": "spender",
          "type": "address"
        },
        {
          "internalType": "uint256",
          "name": "amount",
          "type": "uint256"
        }
      ],
      "name": "approve",
      "outputs": [
        {
          "internalType": "bool",
          "name": "",
          "type": "bool"
        }
      ],
      "stateMutability": "nonpayable",
      "type": "function"
    },
    {
      "inputs": [
        {
          "internalType": "address",
          "name": "account",
          "type": "address"
        }
      ],
      "name": "balanceOf",
      "outputs": [
        {
          "internalType": "uint256",
          "name": "",
          "type": "uint256"
        }
      ],
      "stateMutability": "view",
      "type": "function"
    },
    {
      "inputs": [
        {
          "internalType": "address",
          "name": "_address",
          "type": "address"
        },
        {
          "internalType": "bool",
          "name": "_isBanned",
          "type": "bool"
        }
      ],
      "name": "banAddress",
      "outputs": [],
      "stateMutability": "nonpayable",
      "type": "function"
    },
    {
      "inputs": [],
      "name": "decimals",
      "outputs": [
        {
          "internalType": "uint8",
          "name": "",
          "type": "uint8"
        }
      ],
      "stateMutability": "view",
      "type": "function"
    },
    {
      "inputs": [
        {
          "internalType": "address",
          "name": "spender",
          "type": "address"
        },
        {
          "internalType": "uint256",
          "name": "subtractedValue",
          "type": "uint256"
        }
      ],
      "name": "decreaseAllowance",
      "outputs": [
        {
          "internalType": "bool",
          "name": "",
          "type": "bool"
        }
      ],
      "stateMutability": "nonpayable",
      "type": "function"
    },
    {
      "inputs": [
        {
          "internalType": "address",
          "name": "spender",
          "type": "address"
        },
        {
          "internalType": "uint256",
          "name": "addedValue",
          "type": "uint256"
        }
      ],
      "name": "increaseAllowance",
      "outputs": [
        {
          "internalType": "bool",
          "name": "",
          "type": "bool"
        }
      ],
      "stateMutability": "nonpayable",
      "type": "function"
    },
    {
      "inputs": [
        {
          "internalType": "address",
          "name": "_address",
          "type": "address"
        }
      ],
      "name": "isAddressBanned",
      "outputs": [
        {
          "internalType": "bool",
          "name": "",
          "type": "bool"
        }
      ],
      "stateMutability": "view",
      "type": "function"
    },
    {
      "inputs": [],
      "name": "name",
      "outputs": [
        {
          "internalType": "string",
          "name": "",
          "type": "string"
        }
      ],
      "stateMutability": "view",
      "type": "function"
    },
    {
      "inputs": [],
      "name": "owner",
      "outputs": [
        {
          "internalType": "address",
          "name": "",
          "type": "address"
        }
      ],
      "stateMutability": "view",
      "type": "function"
    },
    {
      "inputs": [],
      "name": "renounceOwnership",
      "outputs": [],
      "stateMutability": "nonpayable",
      "type": "function"
    },
    {
      "inputs": [],
      "name": "symbol",
      "outputs": [
        {
          "internalType": "string",
          "name": "",
          "type": "string"
        }
      ],
      "stateMutability": "view",
      "type": "function"
    },
    {
      "inputs": [],
      "name": "totalSupply",
      "outputs": [
        {
          "internalType": "uint256",
          "name": "",
          "type": "uint256"
        }
      ],
      "stateMutability": "view",
      "type": "function"
    },
    {
      "inputs": [
        {
          "internalType": "address",
          "name": "to",
          "type": "address"
        },
        {
          "internalType": "uint256",
          "name": "value",
          "type": "uint256"
        }
      ],
      "name": "transfer",
      "outputs": [
        {
          "internalType": "bool",
          "name": "",
          "type": "bool"
        }
      ],
      "stateMutability": "nonpayable",
      "type": "function"
    },
    {
      "inputs": [
        {
          "internalType": "address",
          "name": "from",
          "type": "address"
        },
        {
          "internalType": "address",
          "name": "to",
          "type": "address"
        },
        {
          "internalType": "uint256",
          "name": "value",
          "type": "uint256"
        }
      ],
      "name": "transferFrom",
      "outputs": [
        {
          "internalType": "bool",
          "name": "",
          "type": "bool"
        }
      ],
      "stateMutability": "nonpayable",
      "type": "function"
    },
    {
      "inputs": [
        {
          "internalType": "address",
          "name": "newOwner",
          "type": "address"
        }
      ],
      "name": "transferOwnership",
      "outputs": [],
      "stateMutability": "nonpayable",
      "type": "function"
    }
  ],
  "bytecode": {
    "object": "0x60806040523480156200001157600080fd5b50604051620010f6380380620010f683398101604081905262000034916200026b565b828260036200004483826200036c565b5060046200005382826200036c565b505050620000706200006a6200008560201b60201c565b62000089565b6200007c3382620000db565b50505062000460565b3390565b600580546001600160a01b038381166001600160a01b0319831681179093556040519116919082907f8be0079c531659141344cd1fd0a4f28419497f9722a3daafe3b4186f6b6457e090600090a35050565b6001600160a01b038216620001365760405162461bcd60e51b815260206004820152601f60248201527f45524332303a206d696e7420746f20746865207a65726f206164647265737300604482015260640160405180910390fd5b80600260008282546200014a919062000438565b90915550506001600160a01b038216600081815260208181526040808320805486019055518481527fddf252ad1be2c89b69c2b068fc378daa952ba7f163c4a11628f55a4df523b3ef910160405180910390a35050565b505050565b634e487b7160e01b600052604160045260246000fd5b600082601f830112620001ce57600080fd5b81516001600160401b0380821115620001eb57620001eb620001a6565b604051601f8301601f19908116603f01168101908282118183101715620002165762000216620001a6565b816040528381526020925086838588010111156200023357600080fd5b600091505b8382101562000257578582018301518183018401529082019062000238565b600093810190920192909252949350505050565b6000806000606084860312156200028157600080fd5b83516001600160401b03808211156200029957600080fd5b620002a787838801620001bc565b94506020860151915080821115620002be57600080fd5b50620002cd86828701620001bc565b925050604084015190509250925092565b600181811c90821680620002f357607f821691505b6020821081036200031457634e487b7160e01b600052602260045260246000fd5b50919050565b601f821115620001a157600081815260208120601f850160051c81016020861015620003435750805b601f850160051c820191505b8181101562000364578281556001016200034f565b505050505050565b81516001600160401b03811115620003885762000388620001a6565b620003a081620003998454620002de565b846200031a565b602080601f831160018114620003d85760008415620003bf5750858301515b600019600386901b1c1916600185901b17855562000364565b600085815260208120601f198616915b828110156200040957888601518255948401946001909101908401620003e8565b5085821015620004285787850151600019600388901b60f8161c191681555b5050505050600190811b01905550565b808201808211156200045a57634e487b7160e01b600052601160045260246000fd5b92915050565b610c8680620004706000396000f3fe608060405234801561001057600080fd5b50600436106101005760003560e01c806370a0823111610097578063a457c2d711610066578063a457c2d714610222578063a9059cbb14610235578063dd62ed3e14610248578063f2fde38b1461025b57600080fd5b806370a08231146101ce578063715018a6146101f75780638da5cb5b146101ff57806395d89b411461021a57600080fd5b8063313ce567116100d3578063313ce5671461016b578063395093511461017a57806357209f481461018d57806358554b46146101a257600080fd5b806306fdde0314610105578063095ea7b31461012357806318160ddd1461014657806323b872dd14610158575b600080fd5b61010d61026e565b60405161011a9190610a9b565b60405180910390f35b610136610131366004610b05565b610300565b604051901515815260200161011a565b6002545b60405190815260200161011a565b610136610166366004610b2f565b61031a565b6040516012815260200161011a565b610136610188366004610b05565b6103ed565b6101a061019b366004610b6b565b61040f565b005b6101366101b0366004610ba7565b6001600160a01b031660009081526006602052604090205460ff1690565b61014a6101dc366004610ba7565b6001600160a01b031660009081526020819052604090205490565b6101a0610476565b6005546040516001600160a01b03909116815260200161011a565b61010d61048a565b610136610230366004610b05565b610499565b610136610243366004610b05565b61051f565b61014a610256366004610bc2565b6105e2565b6101a0610269366004610ba7565b61060d565b60606003805461027d90610bf5565b80601f01602080910402602001604051908101604052809291908181526020018280546102a990610bf5565b80156102f65780601f106102cb576101008083540402835291602001916102f6565b820191906000526020600020905b8154815290600101906020018083116102d957829003601f168201915b5050505050905090565b60003361030e818585610686565b60019150505b92915050565b6001600160a01b03831660009081526006602052604081205460ff161561037b5760405162461bcd60e51b815260206004820152601060248201526f14d95b99195c881a5cc818985b9b995960821b60448201526064015b60405180910390fd5b6001600160a01b03831660009081526006602052604090205460ff16156103da5760405162461bcd60e51b8152602060048201526013602482015272149958da5c1a595b9d081a5cc818985b9b9959606a1b6044820152606401610372565b6103e58484846107aa565b949350505050565b60003361030e81858561040083836105e2565b61040a9190610c2f565b610686565b6104176107c3565b6001600160a01b038216600081815260066020908152604091829020805460ff191685151590811790915591519182527f7113ce15c395851033544a97557341cdc71886964b54ff108a685d359ed4cdf8910160405180910390a25050565b61047e6107c3565b610488600061081d565b565b60606004805461027d90610bf5565b600033816104a782866105e2565b9050838110156105075760405162461bcd60e51b815260206004820152602560248201527f45524332303a2064656372656173656420616c6c6f77616e63652062656c6f77604482015264207a65726f60d81b6064820152608401610372565b6105148286868403610686565b506001949350505050565b3360009081526006602052604081205460ff16156105725760405162461bcd60e51b815260206004820152601060248201526f14d95b99195c881a5cc818985b9b995960821b6044820152606401610372565b6001600160a01b03831660009081526006602052604090205460ff16156105d15760405162461bcd60e51b8152602060048201526013602482015272149958da5c1a595b9d081a5cc818985b9b9959606a1b6044820152606401610372565b6105db838361086f565b9392505050565b6001600160a01b03918216600090815260016020908152604080832093909416825291909152205490565b6106156107c3565b6001600160a01b03811661067a5760405162461bcd60e51b815260206004820152602660248201527f4f776e61626c653a206e6577206f776e657220697320746865207a65726f206160448201526564647265737360d01b6064820152608401610372565b6106838161081d565b50565b6001600160a01b0383166106e85760405162461bcd60e51b8152602060048201526024808201527f45524332303a20617070726f76652066726f6d20746865207a65726f206164646044820152637265737360e01b6064820152608401610372565b6001600160a01b0382166107495760405162461bcd60e51b815260206004820152602260248201527f45524332303a20617070726f766520746f20746865207a65726f206164647265604482015261737360f01b6064820152608401610372565b6001600160a01b0383811660008181526001602090815260408083209487168084529482529182902085905590518481527f8c5be1e5ebec7d5bd14f71427d1e84f3dd0314c0f7b2291e5b200ac8c7c3b925910160405180910390a3505050565b6000336107b885828561087d565b6105148585856108f7565b6005546001600160a01b031633146104885760405162461bcd60e51b815260206004820181905260248201527f4f776e61626c653a2063616c6c6572206973206e6f7420746865206f776e65726044820152606401610372565b600580546001600160a01b038381166001600160a01b0319831681179093556040519116919082907f8be0079c531659141344cd1fd0a4f28419497f9722a3daafe3b4186f6b6457e090600090a35050565b60003361030e8185856108f7565b600061088984846105e2565b905060001981146108f157818110156108e45760405162461bcd60e51b815260206004820152601d60248201527f45524332303a20696e73756666696369656e7420616c6c6f77616e63650000006044820152606401610372565b6108f18484848403610686565b50505050565b6001600160a01b03831661095b5760405162461bcd60e51b815260206004820152602560248201527f45524332303a207472616e736665722066726f6d20746865207a65726f206164604482015264647265737360d81b6064820152608401610372565b6001600160a01b0382166109bd5760405162461bcd60e51b815260206004820152602360248201527f45524332303a207472616e7366657220746f20746865207a65726f206164647260448201526265737360e81b6064820152608401610372565b6001600160a01b03831660009081526020819052604090205481811015610a355760405162461bcd60e51b815260206004820152602660248201527f45524332303a207472616e7366657220616d6f756e7420657863656564732062604482015265616c616e636560d01b6064820152608401610372565b6001600160a01b03848116600081815260208181526040808320878703905593871680835291849020805487019055925185815290927fddf252ad1be2c89b69c2b068fc378daa952ba7f163c4a11628f55a4df523b3ef910160405180910390a36108f1565b600060208083528351808285015260005b81811015610ac857858101830151858201604001528201610aac565b506000604082860101526040601f19601f8301168501019250505092915050565b80356001600160a01b0381168114610b0057600080fd5b919050565b60008060408385031215610b1857600080fd5b610b2183610ae9565b946020939093013593505050565b600080600060608486031215610b4457600080fd5b610b4d84610ae9565b9250610b5b60208501610ae9565b9150604084013590509250925092565b60008060408385031215610b7e57600080fd5b610b8783610ae9565b915060208301358015158114610b9c57600080fd5b809150509250929050565b600060208284031215610bb957600080fd5b6105db82610ae9565b60008060408385031215610bd557600080fd5b610bde83610ae9565b9150610bec60208401610ae9565b90509250929050565b600181811c90821680610c0957607f821691505b602082108103610c2957634e487b7160e01b600052602260045260246000fd5b50919050565b8082018082111561031457634e487b7160e01b600052601160045260246000fdfea2646970667358221220bf80e9da785027090f672699e323019e4e253c94cf0826532a60ddd0011a390264736f6c63430008110033",
    "linkReferences": {}
  },
  "methodIdentifiers": {
    "allowance(address,address)": "dd62ed3e",
    "approve(address,uint256)": "095ea7b3",
    "balanceOf(address)": "70a08231",
    "banAddress(address,bool)": "57209f48",
    "decimals()": "313ce567",
    "decreaseAllowance(address,uint256)": "a457c2d7",
    "increaseAllowance(address,uint256)": "39509351",
    "isAddressBanned(address)": "58554b46",
    "name()": "06fdde03",
    "owner()": "8da5cb5b",
    "renounceOwnership()": "715018a6",
    "symbol()": "95d89b41",
    "totalSupply()": "18160ddd",
    "transfer(address,uint256)": "a9059cbb",
    "transferFrom(address,address,uint256)": "23b872dd",
    "transferOwnership(address)": "f2fde38b"
  },
  "id": 23
}