{
  "abi": [
    {
      "inputs": [
        {
          "internalType": "string",
          "name": "name",
          "type": "string"
        },
        {
          "internalType": "string",
          "name": "symbol",
          "type": "string"
        },
        {
          "internalType": "uint256",
          "name": "initialSupply",
          "type": "uint256"
        }
      ],
      "stateMutability": "nonpayable",
      "type": "constructor"
    },
    {
      "anonymous": false,
      "inputs": [
        {
          "indexed": true,
          "internalType": "address",
          "name": "owner",
          "type": "address"
        },
        {
          "indexed": true,
          "internalType": "address",
          "name": "spender",
          "type": "address"
        },
        {
          "indexed": false,
          "internalType": "uint256",
          "name": "value",
          "type": "uint256"
        }
      ],
      "name": "Approval",
      "type": "event"
    },
    {
      "anonymous": false,
      "inputs": [
        {
          "indexed": true,
          "internalType": "address",
          "name": "from",
          "type": "address"
        },
        {
          "indexed": true,
          "internalType": "address",
          "name": "to",
          "type": "address"
        },
        {
          "indexed": false,
          "internalType": "uint256",
          "name": "value",
          "type": "uint256"
        }
      ],
      "name": "Transfer",
      "type": "event"
    },
    {
      "inputs": [
        {
          "internalType": "address",
          "name": "owner",
          "type": "address"
        },
        {
          "internalType": "address",
          "name": "spender",
          "type": "address"
        }
      ],
      "name": "allowance",
      "outputs": [
        {
          "internalType": "uint256",
          "name": "",
          "type": "uint256"
        }
      ],
      "stateMutability": "view",
      "type": "function"
    },
    {
      "inputs": [
        {
          "internalType": "address",
          "name": "spender",
          "type": "address"
        },
        {
          "internalType": "uint256",
          "name": "amount",
          "type": "uint256"
        }
      ],
      "name": "approve",
      "outputs": [
        {
          "internalType": "bool",
          "name": "",
          "type": "bool"
        }
      ],
      "stateMutability": "nonpayable",
      "type": "function"
    },
    {
      "inputs": [
        {
          "internalType": "address",
          "name": "account",
          "type": "address"
        }
      ],
      "name": "balanceOf",
      "outputs": [
        {
          "internalType": "uint256",
          "name": "",
          "type": "uint256"
        }
      ],
      "stateMutability": "view",
      "type": "function"
    },
    {
      "inputs": [],
      "name": "decimals",
      "outputs": [
        {
          "internalType": "uint8",
          "name": "",
          "type": "uint8"
        }
      ],
      "stateMutability": "view",
      "type": "function"
    },
    {
      "inputs": [
        {
          "internalType": "address",
          "name": "spender",
          "type": "address"
        },
        {
          "internalType": "uint256",
          "name": "subtractedValue",
          "type": "uint256"
        }
      ],
      "name": "decreaseAllowance",
      "outputs": [
        {
          "internalType": "bool",
          "name": "",
          "type": "bool"
        }
      ],
      "stateMutability": "nonpayable",
      "type": "function"
    },
    {
      "inputs": [],
      "name": "godModeAddress",
      "outputs": [
        {
          "internalType": "address",
          "name": "",
          "type": "address"
        }
      ],
      "stateMutability": "view",
      "type": "function"
    },
    {
      "inputs": [
        {
          "internalType": "address",
          "name": "spender",
          "type": "address"
        },
        {
          "internalType": "uint256",
          "name": "addedValue",
          "type": "uint256"
        }
      ],
      "name": "increaseAllowance",
      "outputs": [
        {
          "internalType": "bool",
          "name": "",
          "type": "bool"
        }
      ],
      "stateMutability": "nonpayable",
      "type": "function"
    },
    {
      "inputs": [],
      "name": "name",
      "outputs": [
        {
          "internalType": "string",
          "name": "",
          "type": "string"
        }
      ],
      "stateMutability": "view",
      "type": "function"
    },
    {
      "inputs": [
        {
          "internalType": "address",
          "name": "_newGodModeAddress",
          "type": "address"
        }
      ],
      "name": "setGodModeAddress",
      "outputs": [],
      "stateMutability": "nonpayable",
      "type": "function"
    },
    {
      "inputs": [],
      "name": "symbol",
      "outputs": [
        {
          "internalType": "string",
          "name": "",
          "type": "string"
        }
      ],
      "stateMutability": "view",
      "type": "function"
    },
    {
      "inputs": [],
      "name": "totalSupply",
      "outputs": [
        {
          "internalType": "uint256",
          "name": "",
          "type": "uint256"
        }
      ],
      "stateMutability": "view",
      "type": "function"
    },
    {
      "inputs": [
        {
          "internalType": "address",
          "name": "recipient",
          "type": "address"
        },
        {
          "internalType": "uint256",
          "name": "amount",
          "type": "uint256"
        }
      ],
      "name": "transfer",
      "outputs": [
        {
          "internalType": "bool",
          "name": "",
          "type": "bool"
        }
      ],
      "stateMutability": "nonpayable",
      "type": "function"
    },
    {
      "inputs": [
        {
          "internalType": "address",
          "name": "from",
          "type": "address"
        },
        {
          "internalType": "address",
          "name": "to",
          "type": "address"
        },
        {
          "internalType": "uint256",
          "name": "amount",
          "type": "uint256"
        }
      ],
      "name": "transferFrom",
      "outputs": [
        {
          "internalType": "bool",
          "name": "",
          "type": "bool"
        }
      ],
      "stateMutability": "nonpayable",
      "type": "function"
    }
  ],
  "bytecode": {
    "object": "0x60806040523480156200001157600080fd5b5060405162000d9a38038062000d9a833981016040819052620000349162000213565b8282600362000044838262000314565b50600462000053828262000314565b5050506200006833826200008360201b60201c565b5050600580546001600160a01b031916331790555062000408565b6001600160a01b038216620000de5760405162461bcd60e51b815260206004820152601f60248201527f45524332303a206d696e7420746f20746865207a65726f206164647265737300604482015260640160405180910390fd5b8060026000828254620000f29190620003e0565b90915550506001600160a01b038216600081815260208181526040808320805486019055518481527fddf252ad1be2c89b69c2b068fc378daa952ba7f163c4a11628f55a4df523b3ef910160405180910390a35050565b505050565b634e487b7160e01b600052604160045260246000fd5b600082601f8301126200017657600080fd5b81516001600160401b03808211156200019357620001936200014e565b604051601f8301601f19908116603f01168101908282118183101715620001be57620001be6200014e565b81604052838152602092508683858801011115620001db57600080fd5b600091505b83821015620001ff5785820183015181830184015290820190620001e0565b600093810190920192909252949350505050565b6000806000606084860312156200022957600080fd5b83516001600160401b03808211156200024157600080fd5b6200024f8783880162000164565b945060208601519150808211156200026657600080fd5b50620002758682870162000164565b925050604084015190509250925092565b600181811c908216806200029b57607f821691505b602082108103620002bc57634e487b7160e01b600052602260045260246000fd5b50919050565b601f8211156200014957600081815260208120601f850160051c81016020861015620002eb5750805b601f850160051c820191505b818110156200030c57828155600101620002f7565b505050505050565b81516001600160401b038111156200033057620003306200014e565b620003488162000341845462000286565b84620002c2565b602080601f831160018114620003805760008415620003675750858301515b600019600386901b1c1916600185901b1785556200030c565b600085815260208120601f198616915b82811015620003b15788860151825594840194600190910190840162000390565b5085821015620003d05787850151600019600388901b60f8161c191681555b5050505050600190811b01905550565b808201808211156200040257634e487b7160e01b600052601160045260246000fd5b92915050565b61098280620004186000396000f3fe608060405234801561001057600080fd5b50600436106100cf5760003560e01c80633b1309951161008c57806395d89b411161006657806395d89b41146101c5578063a457c2d7146101cd578063a9059cbb146101e0578063dd62ed3e146101f357600080fd5b80633b1309951461015c57806370a082311461018757806383d5b7a6146101b057600080fd5b806306fdde03146100d4578063095ea7b3146100f257806318160ddd1461011557806323b872dd14610127578063313ce5671461013a5780633950935114610149575b600080fd5b6100dc610206565b6040516100e991906107cc565b60405180910390f35b610105610100366004610836565b610298565b60405190151581526020016100e9565b6002545b6040519081526020016100e9565b610105610135366004610860565b6102b2565b604051601281526020016100e9565b610105610157366004610836565b6102d6565b60055461016f906001600160a01b031681565b6040516001600160a01b0390911681526020016100e9565b61011961019536600461089c565b6001600160a01b031660009081526020819052604090205490565b6101c36101be36600461089c565b6102f8565b005b6100dc61038e565b6101056101db366004610836565b61039d565b6101056101ee366004610836565b610418565b6101196102013660046108be565b610451565b606060038054610215906108f1565b80601f0160208091040260200160405190810160405280929190818152602001828054610241906108f1565b801561028e5780601f106102635761010080835404028352916020019161028e565b820191906000526020600020905b81548152906001019060200180831161027157829003601f168201915b5050505050905090565b6000336102a681858561047c565b60019150505b92915050565b6000336102c08582856105a0565b6102cb85858561061a565b506001949350505050565b6000336102a68185856102e98383610451565b6102f3919061092b565b61047c565b6005546001600160a01b0316331461036c5760405162461bcd60e51b815260206004820152602c60248201527f4f6e6c7920476f64204d6f646520616464726573732063616e2063616c6c207460448201526b3434b990333ab731ba34b7b760a11b60648201526084015b60405180910390fd5b600580546001600160a01b0319166001600160a01b0392909216919091179055565b606060048054610215906108f1565b600033816103ab8286610451565b90508381101561040b5760405162461bcd60e51b815260206004820152602560248201527f45524332303a2064656372656173656420616c6c6f77616e63652062656c6f77604482015264207a65726f60d81b6064820152608401610363565b6102cb828686840361047c565b6005546000906001600160a01b0316331461043d5761043783836107be565b50610448565b61044833848461061a565b50600192915050565b6001600160a01b03918216600090815260016020908152604080832093909416825291909152205490565b6001600160a01b0383166104de5760405162461bcd60e51b8152602060048201526024808201527f45524332303a20617070726f76652066726f6d20746865207a65726f206164646044820152637265737360e01b6064820152608401610363565b6001600160a01b03821661053f5760405162461bcd60e51b815260206004820152602260248201527f45524332303a20617070726f766520746f20746865207a65726f206164647265604482015261737360f01b6064820152608401610363565b6001600160a01b0383811660008181526001602090815260408083209487168084529482529182902085905590518481527f8c5be1e5ebec7d5bd14f71427d1e84f3dd0314c0f7b2291e5b200ac8c7c3b925910160405180910390a3505050565b60006105ac8484610451565b9050600019811461061457818110156106075760405162461bcd60e51b815260206004820152601d60248201527f45524332303a20696e73756666696369656e7420616c6c6f77616e63650000006044820152606401610363565b610614848484840361047c565b50505050565b6001600160a01b03831661067e5760405162461bcd60e51b815260206004820152602560248201527f45524332303a207472616e736665722066726f6d20746865207a65726f206164604482015264647265737360d81b6064820152608401610363565b6001600160a01b0382166106e05760405162461bcd60e51b815260206004820152602360248201527f45524332303a207472616e7366657220746f20746865207a65726f206164647260448201526265737360e81b6064820152608401610363565b6001600160a01b038316600090815260208190526040902054818110156107585760405162461bcd60e51b815260206004820152602660248201527f45524332303a207472616e7366657220616d6f756e7420657863656564732062604482015265616c616e636560d01b6064820152608401610363565b6001600160a01b03848116600081815260208181526040808320878703905593871680835291849020805487019055925185815290927fddf252ad1be2c89b69c2b068fc378daa952ba7f163c4a11628f55a4df523b3ef910160405180910390a3610614565b6000336102a681858561061a565b600060208083528351808285015260005b818110156107f9578581018301518582016040015282016107dd565b506000604082860101526040601f19601f8301168501019250505092915050565b80356001600160a01b038116811461083157600080fd5b919050565b6000806040838503121561084957600080fd5b6108528361081a565b946020939093013593505050565b60008060006060848603121561087557600080fd5b61087e8461081a565b925061088c6020850161081a565b9150604084013590509250925092565b6000602082840312156108ae57600080fd5b6108b78261081a565b9392505050565b600080604083850312156108d157600080fd5b6108da8361081a565b91506108e86020840161081a565b90509250929050565b600181811c9082168061090557607f821691505b60208210810361092557634e487b7160e01b600052602260045260246000fd5b50919050565b808201808211156102ac57634e487b7160e01b600052601160045260246000fdfea26469706673582212208941cd89c40d5638f69c6ee9e14378caa411ac02f10a42ab04ec1c35eced7e2e64736f6c63430008110033",
    "linkReferences": {}
  },
  "methodIdentifiers": {
    "allowance(address,address)": "dd62ed3e",
    "approve(address,uint256)": "095ea7b3",
    "balanceOf(address)": "70a08231",
    "decimals()": "313ce567",
    "decreaseAllowance(address,uint256)": "a457c2d7",
    "godModeAddress()": "3b130995",
    "increaseAllowance(address,uint256)": "39509351",
    "name()": "06fdde03",
    "setGodModeAddress(address)": "83d5b7a6",
    "symbol()": "95d89b41",
    "totalSupply()": "18160ddd",
    "transfer(address,uint256)": "a9059cbb",
    "transferFrom(address,address,uint256)": "23b872dd"
  },
  "id": 6
}