{
  "abi": [
    {
      "inputs": [],
      "name": "NotAuthorized",
      "type": "error"
    },
    {
      "inputs": [],
      "name": "throwCustomError",
      "outputs": [],
      "stateMutability": "pure",
      "type": "function"
    },
    {
      "inputs": [],
      "name": "throwError",
      "outputs": [],
      "stateMutability": "pure",
      "type": "function"
    }
  ],
  "bytecode": {
    "object": "0x608060405234801561001057600080fd5b5060d18061001f6000396000f3fe6080604052348015600f57600080fd5b506004361060325760003560e01c80632f7643a8146037578063c1e2603314603f575b600080fd5b603d6045565b005b603d6082565b60405162461bcd60e51b815260206004820152600e60248201526d1b9bdd08185d5d1a1bdc9a5e995960921b604482015260640160405180910390fd5b60405163ea8e4eb560e01b815260040160405180910390fdfea2646970667358221220d8514eef7f830e80a3a4f7d498355df589d6a6b1b5ed5cdaff0a872f9bb3ce7364736f6c63430008110033",
    "linkReferences": {}
  },
  "methodIdentifiers": {
    "throwCustomError()": "c1e26033",
    "throwError()": "2f7643a8"
  },
  "id": 18
}